:020000040800F2
:10000000F8110020AD020008B5020008B702000890
:10001000B9020008BB020008BD0200080000000091
:10002000000000000000000000000000BF02000807
:10003000C102000800000000C3020008C502000859
:10004000C7020008C7020008C7020008C70200086C
:10005000C7020008C7020008C7020008C70200085C
:10006000C7020008C7020008C7020008C70200084C
:10007000C7020008C7020008C7020008C70200083C
:10008000C7020008C7020008C7020008C70200082C
:10009000C7020008C7020008C7020008C70200081C
:1000A000C7020008C7020008C7020008C70200080C
:1000B00045140008F115000871160008C50700086E
:1000C000C7020008C7020008C7020008C7020008EC
:1000D000C7020008C7020008C7020008C7020008DC
:1000E000C7020008C7020008C7020008C7020008CC
:1000F000C7020008C7020008C7020008C7020008BC
:10010000C7020008C7020008B5160008C7020008A9
:10011000C7020008C7020008C7020008C70200089B
:10012000C7020008C7020008C7020008C70200088B
:10013000C70200080000000000000000C70200081D
:10014000C7020008C7020008C7020008C70200086B
:10015000C7020008C7020008C7020008C70200085B
:10016000C7020008C7020008C7020008C70200084B
:10017000C7020008C7020008C7020008000000000C
:1001800000000000C702000800000000000000009E
:10019000C70200080000000000000000C7020008BD
:1001A000000000000000000000000000C70200087E
:1001B000C7020008C7020008C7020008C7020008FB
:1001C000C702000800F002F800F060F80AA090E80A
:1001D000000C82448344AAF10107DA4501D100F002
:1001E00055F8AFF2090EBAE80F0013F0010F18BF6F
:1001F000FB1A43F0010318479C1F0000BC1F0000BE
:1002000010F8013B0A4413F0030408BF10F8014B37
:100210001D1108BF10F8015B641E05D010F8016BBA
:10022000641E01F8016BF9D1002D15D010F8014BB7
:1002300003F00C030C2BA1EB04040ABF10F8013BE4
:10024000A4EB8314A4EB032405F1010314F8016B60
:100250005B1E01F8016BF9D5914238BF10F8013BE4
:10026000D1D370470023002400250026103A28BF70
:1002700078C1FBD8520728BF30C148BF0B60704718
:100280001FB501F075FF1FBD10B510BD00F063F87C
:100290001146FFF7F5FF01F08FFC00F081F803B481
:1002A000FFF7F2FF03BC00F089F80000094880471F
:1002B00009480047FEE7FEE7FEE7FEE7FEE7FEE748
:1002C000FEE7FEE7FEE7FEE704480549054A064B60
:1002D00070470000E1130008C5010008F80B00207A
:1002E000F8110020F80D0020F80D002010B5203A7C
:1002F000C0F00B80B1E81850203AA0E81850B1E8DF
:100300001850A0E81850BFF4F5AF5FEA027C24BF94
:10031000B1E81850A0E8185044BF18C918C0BDE88B
:1003200010405FEA827C24BF51F8043B40F8043B54
:1003300008BF7047D20728BF31F8023B48BF11F809
:10034000012B28BF20F8023B48BF00F8012B704763
:10035000704770477047754600F02CF8AE460500B0
:100360006946534620F00700854618B020B5FFF7D0
:10037000ABFFBDE820404FF000064FF000074FF004
:1003800000084FF0000B21F00701AC46ACE8C009B3
:10039000ACE8C009ACE8C009ACE8C0098D467047BC
:1003A00010B50446AFF300802046BDE81040FFF7CB
:1003B00076BF000000487047980B002001491820C4
:1003C000ABBEFEE726000200704700002DE9FF4F9C
:1003D00005460C460D9E0396ADF80A3000924FF08C
:1003E0000008ADF80480ADF80840A4F101081FFA38
:1003F00088F8ADF80680BDF808804FEAE807BDF838
:1004000008804FEAE809A8EBC9081FFA88FC0098A1
:10041000002123E09FED1B0AA0EC010A9FED190AC1
:10042000A0EC010A9FED170AA0EC010A9FED150A46
:10043000A0EC010A9FED130AA0EC010A9FED110A3E
:10044000A0EC010A9FED0F0AA0EC010A9FED0D0A36
:10045000A0EC010A01F101081FFA88F1B942D9DBC9
:10046000002107E09FED070AA0EC010A01F1010855
:100470001FFA88F16145F5DB9DE8000F85E8000F64
:10048000BDE8FF8F00000000F0B50346DFEDCC0AA9
:10049000C1ED000AB3F804C01F6807EB8C0787EDB5
:1004A000000AD868B3F804C01F6807EB8C029F8865
:1004B000B3F80AC0674578DB5F89FD105F894FEAB2
:1004C000E70CA7EBCC073EB2002459E092ED001AEE
:1004D000121FF0EC011AD1ED000A41EE210AC1ED24
:1004E000000A92ED001A121FF0EC011AD1ED000A79
:1004F00041EE210AC1ED000A92ED001A121FF0EC44
:10050000011AD1ED000A41EE210AC1ED000A92ED77
:10051000001A121FF0EC011AD1ED000A41EE210A77
:10052000C1ED000A92ED001A121FF0EC011AD1ED94
:10053000000A41EE210AC1ED000A92ED001A121FD5
:10054000F0EC011AD1ED000A41EE210AC1ED000ADA
:1005500092ED001A121FF0EC011AD1ED000A41EEE3
:10056000210AC1ED000A92ED001A121FF0EC011AE7
:10057000D1ED000A41EE210AC1ED000A671C3CB230
:10058000AC42A3DB00240CE092ED001A121FF0EC49
:10059000011AD1ED000A41EE210AC1ED000A671CE3
:1005A0003CB2B442F0DB03E1FFE79F88FD109F8877
:1005B0004FEAE70CA7EBCC073EB2002459E092EDDE
:1005C000001A121FF0EC011AD1ED000A41EE210AC7
:1005D000C1ED000A92ED001A121FF0EC011AD1EDE4
:1005E000000A41EE210AC1ED000A92ED001A121F25
:1005F000F0EC011AD1ED000A41EE210AC1ED000A2A
:1006000092ED001A121FF0EC011AD1ED000A41EE32
:10061000210AC1ED000A92ED001A121FF0EC011A36
:10062000D1ED000A41EE210AC1ED000A92ED001A57
:10063000121FF0EC011AD1ED000A41EE210AC1EDC2
:10064000000A92ED001A121FF0EC011AD1ED000A17
:1006500041EE210AC1ED000A92ED001A121FF0ECE2
:10066000011AD1ED000A41EE210AC1ED000A671C12
:100670003CB2AC42A3DB00240CE092ED001A121F46
:10068000F0EC011AD1ED000A41EE210AC1ED000A99
:10069000671C3CB2B442F0DBB0EC011AD1ED000AA9
:1006A0001F68D7ED001A41EE810AC1ED000A1F89CB
:1006B0007F1ED3F800C00CEB87025F89B3F804C03B
:1006C000A7EB0C077F1E3DB2EF10A5EBC7073EB2AC
:1006D000ED10002459E092ED001A121FF0EC011AFF
:1006E000D1ED000A41EE210AC1ED000A92ED001A97
:1006F000121FF0EC011AD1ED000A41EE210AC1ED02
:10070000000A92ED001A121FF0EC011AD1ED000A56
:1007100041EE210AC1ED000A92ED001A121FF0EC21
:10072000011AD1ED000A41EE210AC1ED000A92ED55
:10073000001A121FF0EC011AD1ED000A41EE210A55
:10074000C1ED000A92ED001A121FF0EC011AD1ED72
:10075000000A41EE210AC1ED000A92ED001A121FB3
:10076000F0EC011AD1ED000A41EE210AC1ED000AB8
:1007700092ED001A121FF0EC011AD1ED000A41EEC1
:10078000210AC1ED000A671C3CB2AC42A3DB002485
:100790000CE092ED001A121FF0EC011AD1ED000AE4
:1007A00041EE210AC1ED000A671C3CB2B442F0DB05
:1007B0009F887F1CB3F806C007EA0C079F80F0BD36
:1007C0000000000010B5434800684349086008462F
:1007D000007800F0010038B13E4800680860512000
:1007E0003C49091F086074E03B48007800F00200B3
:1007F00058B138480068384908603648001D00681C
:10080000086001203549087063E034480078A0B1E1
:100810003048001F006832490880084600884FF4BD
:100820007C5101EA00202E4908802A4814380068CB
:1008300020F480602749143908602848007800288F
:1008400044D124481438006840F400702149143918
:1008500008602048001F0068214909880843204992
:10086000088020480088401C00F01F001E490880B6
:10087000084600881D49098888420BD0184800881E
:100880001B49184A128821F8120017480088154998
:1008900008801BE01748006820F001001549086037
:1008A0000C481438006820F001000A491439086027
:1008B0000021084600F0B0F90FA000F0AFFA0121C6
:1008C000002000F0A9F911A000F0A8FA00200349C7
:1008D000087010BD14540040EC020020E802002013
:1008E000F202002030000020F00200203200002040
:1008F00010040020000400402020202020455252F7
:100900004F522020202020200000000020205245AF
:1009100053455420444556494345202000000000DB
:10092000D0ED020A026892ED001A40EE010AC0ED15
:10093000020AD0ED030A026892ED011A40EE010AA4
:10094000C0ED030AD0ED040A026892ED021A40EEEF
:10095000010AC0ED040AD0ED050A026892ED031AFF
:1009600040EE010AC0ED050AD0ED060A026892EDDC
:10097000041A40EE010AC0ED060AD0ED020AF1EEBB
:10098000600A264AC2ED000AD0ED030A426892EDE1
:10099000011A224AD2ED001A41EE810AC0ED030A83
:1009A000D0ED040A426892ED021A1C4AD2ED001AF8
:1009B00041EE810AC0ED040AD0ED050A426892EDCD
:1009C000031A164AD2ED001A41EE810AC0ED050A5B
:1009D000D0ED060A426892ED041A104AD2ED001AD0
:1009E00041EE810AC0ED060AD0ED020AC1ED000A0F
:1009F000D0ED030AC0ED020AD0ED040AC0ED030AEF
:100A0000D0ED050AC0ED040AD0ED060AC0ED050AD6
:100A1000DFED030AC0ED060A70470000080300205E
:100A20000000000070B588B006460C4615460194DB
:100A300002951C2201A93046FFF758FC08B070BD92
:100A400038B56C48006840F001006A490860002031
:100A5000090608614FF4FA6088626920C862664836
:100A600000F096FF0621644801F066FB62481830EA
:100A7000006840F040006049183108605F4800F0AD
:100A800087FF5F4800F084FF5B4800F081FF5A4811
:100A900000F07EFF584800F07BFF584800F078FFD8
:100AA0000921564801F048FB0721554801F044FB55
:100AB0000521514801F040FB04214F4801F03CFB67
:100AC0000A214D4801F038FB08214C4801F034FB65
:100AD000002000904B4C009002E00098401C0090D9
:100AE0000098A042F9D3032000F03EF900200090C6
:100AF00002E00098401C00900098A042F9D3032027
:100B000000F032F90020009002E00098401C0090B4
:100B10000098A042F9D3032000F026F900200090AD
:100B200002E00098401C00900098A042F9D30220F7
:100B300000F01AF90020009002E00098401C00909C
:100B40000098A042F9D328202F4908800820488027
:100B5000012088800620C8800E20088104202B49AF
:100B60000880402000F0B0F8002000F0D3F80A2000
:100B700000F0D0F81F2000F0CDF81F2000F0CAF8D8
:100B80000E2000F0C7F8042000F0C4F8002000F0A8
:100B9000C1F8002000F0BEF81C200221002804DB70
:100BA0000A07130E1A4A135406E00A07150E194ACB
:100BB00000F00F031B1FD55400BF4FF08040C068EA
:100BC00040F001004FF08041C8600846006840F0E6
:100BD000010008601C20002809DB00F01F02012131
:100BE00091404209920002F1E022C2F8001100BFD8
:100BF00038BD0000403802400004024000000240BE
:100C00000008024080FC0A001003002000000020C1
:100C100000E400E018ED00E010B5124A1288521C02
:100C200002F07F02104B1A801A4612880F4B1B8865
:100C30009A4215D00C4A12880A4B1A80402202FBB5
:100C4000010242F080020A4B064C248823F814204B
:100C50004FF08042D26842F001024FF08043DA60E8
:100C600010BD000000000020040000200200002051
:100C7000100300202DE9F0410446642094FBF0F0BD
:100C8000C6B2642094FBF0F100FB1140C5B20A200B
:100C900095FBF0F0C7B20A2095FBF0F100FB115074
:100CA00000F0FF0806F13001C8B200F033F807F198
:100CB0003001C8B200F02EF808F13001C8B200F0DF
:100CC00029F8BDE8F08100000E490988491C01F0AF
:100CD0007F010D4A1180114609880C4A1288914201
:100CE0000FD009490988074A11800949128821F85B
:100CF00012004FF08041C96841F001014FF080427D
:100D0000D160704700000020040000200200002095
:100D10001003002010490988491C01F07F010F4A87
:100D20001180114609880E4A1288914212D00B494F
:100D30000988094A118040F480710A4A064B1B88D1
:100D400022F813104FF08041C96841F001014FF0C3
:100D50008042D160704700000000002004000020A5
:100D600002000020100300202949896941F0007128
:100D7000274A91612749096841F08001254A11609D
:100D800000F0010131B12449096841F02001224AF3
:100D9000116005E02049096841F400111E4A116004
:100DA00000F0020131B11C49096841F010011A4AF2
:100DB000116005E01849096841F48011164A116074
:100DC00000F0040131B11449096841F48061124A0C
:100DD000116005E01049096841F080610E4A116018
:100DE00000F0080131B10A49896941F48071084A6B
:100DF000916105E00649896941F08071044A916179
:100E00000449096841F40001024A1160704700007A
:100E100000000240180802401804024019E013497B
:100E20000988491C01F07F01114A11801146098887
:100E3000104A128891420BD00D4909880B4A118043
:100E4000017841F480710C4A084B1B8822F813107A
:100E5000401C01780029E2D14FF08041C96841F07F
:100E600001014FF08042D160704700000000002077
:100E700004000020020000201003002010B5C74825
:100E800000F0E2FDC54800F0DFFDC548006840F411
:100E90000010C3490860C348006820F00100C14940
:100EA0000860BE48006840F48030BC4908600846CD
:100EB000006820F4003008600846006840F4802094
:100EC00008600846006820F400200860081D0068DB
:100ED00040F48070091D08600846006840F4007006
:100EE0000860AE481430006840F48070AB4914319B
:100EF00008600846006840F40070086000BFA7481A
:100F00001030006800F4807030B9A44810300068D8
:100F100000F400700028F2D0A048006840F480205F
:100F20009E4908600846006820F400200860081DFB
:100F3000006840F40070091D08609848143000688B
:100F400020F4007095491431086000BF93481030B8
:100F5000006800F400700028F8D19048006840F460
:100F600080308E4908600846006820F40030086030
:100F7000081D006840F48070091D0860874814301F
:100F8000006820F4807085491431086000BF8348F0
:100F90001030006800F480700028F8D17F480068A5
:100FA00040F480307D4908600846006820F4003035
:100FB0000860081D006840F48070091D08607748CB
:100FC0001430006840F4807074491431086000BF28
:100FD00072481030006800F480700028F8D06F4824
:100FE000006840F480206D4908600846006820F4DD
:100FF00000200860081D006840F40070091D0860AA
:1010000066481430006840F4007064491431086088
:1010100000BF62481030006800F400700028F8D06B
:101020005E48006840F400205C490860084600689B
:1010300020F4802008600846406A40F0400157488C
:101040004162001D006840F400705449091D0860A9
:1010500052480C30006840F4802050490C31086040
:101060000846006820F4002008604C48006840F4FE
:1010700000304A4908600846006820F48030086063
:101080000846406A40F0040144484162001D00687F
:1010900040F480704149091D086040480C300068E8
:1010A00040F480303D490C3108600846006820F467
:1010B000003008603B48006840F40040394908604F
:1010C0000846006820F400400860081D006820F011
:1010D0003F00091D08600846006840F02A000860CB
:1010E00030481C30006820F400402E491C31086054
:1010F000084600686FF30B0008600846006840F07F
:10110000FA000860081D006820F03F00091D086013
:101110000846006840F0330008602248001D00685F
:1011200040F400701F49091D08600846006840F43B
:1011300080600860081F006840F00100091F086017
:1011400000BF1848006800F001000028F9D01548D9
:10115000006820F40060134908601F200021002867
:1011600004DB0A07130E104A135406E00A07140E94
:101170000E4A00F00F031B1FD45400BF1F2000288D
:1011800009DB00F01F02012191404209920002F1A7
:10119000E022C2F8001100BF10BD000000040240B0
:1011A000403802400054004000E400E018ED00E048
:1011B00010B51D4800F0A4FC1C4800F0A1FC1C4820
:1011C00000F09EFC0121184800F0C4FF00211748E0
:1011D00000F0C0FF002016490968430001229A4030
:1011E0009143134A116011460968430002229A4054
:1011F00091430F4A116000BF0B481430006840F063
:10120000020009491431086008481430006820F0D1
:1012100001000649143108601046406820F00100C2
:101220001146486010BD0000000802400004024062
:101230000000024010B53748006840F00100354911
:10124000086000BF3348006800F002000028F9D0B1
:1012500000203049083108602E4800682E490840B7
:101260002C4908602D48091D0860081F006820F4FB
:101270008020091F0860002026490C31086025489D
:10128000001D006840F010002249091D0860084652
:10129000006847F6C07188431E49091D086008466A
:1012A000006840F4A84008600846006840F48030B8
:1012B00008600846006840F400300860081F0068B5
:1012C00040F08070091F086000BF1248006800F0FD
:1012D00000700028F9D00F480830006820F00300A3
:1012E0000C49083108600846006840F002000860B8
:1012F0000846006820F0F00008600846006820F406
:10130000E05008600846006820F46040086000F083
:1013100007F810BD00380240FFFFF6FE1030002431
:1013200070B500200022022300240221274D2D68E1
:1013300005F00C0020B1042806D0082834D107E0BD
:10134000234D244E356033E0234D224E35602FE08F
:101350001E4D2D1F2D68C5F380541C4D2D1F2D686B
:1013600005F03F0154B11C4DB5FBF1F5174E361F8A
:101370003668C6F3881605FB06F209E0144DB5FB86
:10138000F1F5124E361F3668C6F3881605FB06F2D5
:101390000E4D2D1F2D68C5F301456D1C6B00B2FB72
:1013A000F3F50C4E356003E0094D0A4E356000BF81
:1013B00000BF064D2D68C5F30315084E705D054D41
:1013C0002D68C540034E356070BD000008380240EE
:1013D0000024F4000C03002040787D017A210008ED
:1013E0001448006840F47000124908601248006810
:1013F00040F001001049086000200F4908310860E2
:101400000D4800680D4908400B4908600C48091D4B
:101410000860081F006820F48020091F0860002071
:1014200005490C3108604FF00060024980390860BE
:101430007047000088ED00E000380240FFFFF6FE34
:10144000103000244FF08041096921F001014FF074
:101450008042116160490988491C01F07F015E4AA0
:1014600011805E49128831F812005D49096841F027
:1014700080015B4A116000F4807131B1594989697A
:1014800041F40071574A916105E05649896941F07C
:101490000071544A916100F0100131B1524909685C
:1014A00041F02001504A116005E04F49096841F4BC
:1014B00000114D4A116000F0200131B14A4909681C
:1014C00041F01001484A116005E04749096841F4BC
:1014D0008011454A116000F0400131B1424909686C
:1014E00041F48061404A116005E03F49096841F0DC
:1014F00080613D4A116000F0800131B1394989694C
:1015000041F48071374A916105E03649896941F0BB
:101510008071344A91613249096841F40001304ACE
:1015200011601146096841F08001116000F001016D
:1015300031B12D49096841F020012B4A116005E0C5
:101540002949096841F40011274A116000F002019D
:1015500031B12549096841F01001234A116005E0C5
:101560002149096841F480111F4A116000F004010B
:1015700031B11D49096841F480611B4A116005E0E1
:101580001949096841F08061174A116000F00801AB
:1015900031B11449896941F48071124A916105E0C1
:1015A0001049896941F080710E4A91610C490968BE
:1015B00041F400010A4A11600C490988064A128860
:1015C000914207D14FF08041C96821F001014FF0ED
:1015D0008042D1607047000002000020100300200C
:1015E00018080240000002401804024000000020D9
:1015F00010B51348006820F0010011490860114837
:10160000006800F0020068B100210846FFF704FB03
:101610000DA0FFF703FC01210020FFF7FDFA0FA04A
:10162000FFF7FCFB07481838006840F48060054964
:10163000183908600846006840F48070086010BDE2
:101640001004004018540040202020202045525211
:101650004F52202020202020000000002020524552
:10166000534554204445564943452020000000007E
:101670000C48006820F001000A4908600A48007818
:1016800000F0030028B9012008490870002006492D
:10169000087005480078401C03490870012004497F
:1016A0000870704710080040F4020020400000203D
:1016B0004100002010B55948006820F0010057494A
:1016C000086057480078F0B155480078401C5449EC
:1016D000087008460078052815DD0120514908707A
:1016E0000020514908704E4908704C481038006875
:1016F00020F001004949103908604C48006820F08A
:1017000001004A4908604A480078A0B14948006889
:1017100040F002004749086041480078401C4049B9
:10172000087000204249087000210846FFF774FA4B
:1017300041A0FFF773FB3C48007838B34348444965
:10174000098830F8110000EE100AB8EE400ADFED0B
:10175000410A30EE600AF1EE040A20EE200ADFEDC5
:101760003E0A80EE201A9FED3D0A21EE000A3C4819
:1017700080ED000A90ED000ABCEEC00A10EE100ADF
:10178000B3284AD901202A49087046E03548006943
:1017900000F00100002840D10120234908700021F9
:1017A0000846FFF739FA30A0FFF738FB0121002087
:1017B000FFF732FA30A0FFF731FB00203249086012
:1017C00031481438006820F001002F4914390860AE
:1017D0002D482438006840F001002B492439086066
:1017E00029481838006840F0010027491839086076
:1017F0001E2000F0ABF80D48006840F001000B49D6
:1018000008600C48006820F002000A4908601F4880
:10181000006840F001001D49086010BD100C004038
:10182000FD0200203F000020FC02002014040240C2
:10183000FE0200201408024020202020202020202A
:101840002020202020202020000000001004002064
:101850003200002000C0CC4400CC4C460000504276
:10186000F80200200000024050554D5020544F20F7
:101870003138306D6D4867005072657373757265ED
:101880003A202020202020002408004000040040AE
:1018900010B52A48006840F00200284908604FF45B
:1018A0007A7027490860A820091D086024481C3860
:1018B000006840F0010022491C39086001211D2008
:1018C00000F052F81D2000F041F81C48006840F07C
:1018D00004001A4908604FF47A601A49086040F61B
:1018E0004120091D086001211E2000F03DF8134829
:1018F000006840F008001149086042F2D000124927
:1019000008604FF47A70091D08600F482838006895
:1019100040F001000C49283908600B481C38006869
:1019200040F0010008491C390860322000F00EF830
:101930000021322000F018F810BD000040380240AD
:101940002804004028080040280C0040002809DB3B
:1019500000F01F02012191404209920002F1E022B1
:10196000C2F800117047000010B5002804DB0A0718
:10197000130E054A135406E00A07140E034A00F03A
:101980000F031B1FD45410BD00E400E018ED00E06D
:101990002449884205D12449096841F00101224ABD
:1019A00011602249884205D11F49096841F00201AE
:1019B0001D4A11601E49884205D11B49096841F042
:1019C0000401194A11601B49884205D1164909686A
:1019D00041F00801144A11601749884205D11249A3
:1019E000096841F01001104A11601449884205D17C
:1019F0000D49096841F020010B4A116010498842E5
:101A000005D10949096841F04001074A11600D49B3
:101A1000884205D10449096841F08001024A1160F9
:101A200070470000000002403038024000040240CD
:101A300000080240000C0240001002400014024066
:101A400000180240001C02402449884205D1244964
:101A5000096841F00101224A11602249884205D1FA
:101A60001F49096841F002011D4A11601E49884260
:101A700005D11B49096841F00401194A11601B494D
:101A8000884205D11649096841F00801144A1160DD
:101A90001749884205D11249096841F01001104ADE
:101AA00011601449884205D10D49096841F02001AF
:101AB0000B4A11601049884205D10949096841F073
:101AC0004001074A11600D49884205D1044909685F
:101AD00041F08001024A116070470000000002409E
:101AE000303802400004024000080240000C02406E
:101AF000001002400014024000180240001C024086
:101B00002449884205D12449096841F00101224A4B
:101B100011602249884205D11F49096841F002013C
:101B20001D4A11601E49884205D11B49096841F0D0
:101B30000401194A11601B49884205D116490968F8
:101B400041F00801144A11601749884205D1124931
:101B5000096841F01001104A11601449884205D10A
:101B60000D49096841F020010B4A11601049884273
:101B700005D10949096841F04001074A11600D4942
:101B8000884205D10449096841F08001024A116088
:101B9000704700000000024030380240000402405C
:101BA00000080240000C02400010024000140240F5
:101BB00000180240001C024092B0FFF73BFBFD48BA
:101BC000006840F47000FB490860FFF7F1FAFEF787
:101BD00037FFFFF75DFE00210846FFF71DF8F6A06E
:101BE000FFF71CF901210020FFF716F8F7A0FFF717
:101BF00015F9FFF743F911AC10ADF948A623F94ADE
:101C00004FF48071009003A8FEF7E0FBF64803A9AB
:101C10008EC98EC0F54AF6496846FEF703FF1C22BE
:101C20006946F448FEF762FBEF484089401E4608CB
:101C3000002009900890079075E2EF48007800288E
:101C40007ED0EE480088EE490988884279D0ED4878
:101C5000EB49098830F8110000EE900AF8EE600AAE
:101C6000B0EE600A2146E8480068FEF759FEE548F4
:101C7000E349098830F8110000EE900AF8EE600A96
:101C8000B0EE600A2946E1480068FEF7FDFB94EDDE
:101C9000000ADFEDDF0A30EE600AF1EE040A60EEC2
:101CA000200A9FEDDC1A80EE810ADFEDDB0A20EED0
:101CB000200ADA48006880ED030AD84800684069C5
:101CC000401CD64909684861D5480078401C00F09E
:101CD0007F00D349088094ED000AD248098800EBC0
:101CE000810080ED000AC6480088401C00F01F00FB
:101CF000C349088094ED000ADDED0F0A30EE600A5A
:101D00008DED0E0A95ED000ADDED0C0A30EE600A4D
:101D10008DED0B0A9DED0E0ADDED0D0A20EE200A79
:101D2000B5EEC00AF1EE10FA31D29DED0E0ADDEDEE
:101D30000D0A30EE600AB5EEC00AF1EE10FA01E0CD
:101D4000FEE0FCE023D2B54800684069B349096869
:101D50008969401A402807D901200990AF480068D6
:101D60004069AE4909688861AC48006890ED000A96
:101D7000B5EEC00AF1EE10FA09D101200790A7488C
:101D8000006890ED030AA548006880ED000A9DF800
:101D90001C00E8B39DED0B0ADDED0A0A20EE200AD7
:101DA000B5EEC00AF1EE10FA3BD29DED0B0ADDED67
:101DB0000A0A30EE600AB5EEC00AF1EE10FA30D22F
:101DC00095ED000A95480068D0ED040AB4EEE00AEB
:101DD000F1EE10FA25DD92480078801B00F07F00BC
:101DE000904901EB800090ED000ADFED890A30EEAA
:101DF000600AF1EE040A20EE200A9FED861AC0EE7A
:101E0000010A9FED850A20EE800A8448006800E000
:101E100007E080ED020A95ED000A8048006880ED39
:101E2000040A9DED0E0A8DED0D0A94ED000A8DED6C
:101E30000F0A9DED0B0A8DED0A0A95ED000A8DED56
:101E40000C0A7648006890ED030ADFED770AB4EEDD
:101E5000E00AF1EE10FA72D200210846FEF7DCFE2D
:101E600072A0FEF7DBFF00210720FEF7D5FE202041
:101E7000FEF750FF00210820FEF7CEFE6DA0FEF712
:101E8000CDFF00205C49087007906C48006820F086
:101E900001006A49086000206949087069490870B2
:101EA0005E48006890ED000A5C480068D0ED020AC8
:101EB000B0EE081A10EE810AF0EE000A80EE201A49
:101EC0005648006880ED011A00210420FEF7A4FEA8
:101ED0005249096891ED000ABCEEC00A10EE101AD2
:101EE000C8B2FEF7C7FE00210C20FEF795FE4B4955
:101EF000096891ED010ABCEEC00A10EE101AC8B2D2
:101F0000FEF7B8FE01210020FEF786FE4EA0FEF788
:101F100085FF01210620FEF77FFE4049096891ED0B
:101F2000020ABCEEC00A10EE101AC8B2FEF7A2FEFA
:101F300001210C20FEF770FE45A0FEF76FFFBDE00B
:101F40002E4800882E490988884232D02D482C49D5
:101F5000098830F8110000EE900AF8EE600AB0EE41
:101F6000600A214628480068FEF7DAFC2548244923
:101F7000098830F8110000EE900AF8EE600AB0EE21
:101F8000600A294621480068FEF77EFA2448007856
:101F9000401C00F07F002249088094ED000A21488F
:101FA000098800EB810080ED000A15480088401C7C
:101FB00052E083E088ED00E050757420637566663A
:101FC000206F6E2061726D200000000070726573DA
:101FD000732020627574746F6E2020200000000052
:101FE00044000020980700206C0700201C000020FF
:101FF000080000207C0700203F0000203000002067
:102000003200002010040020E4020020E002002042
:1020100000C0CC4400CC4C4600005042DC02002002
:102020003400002050040020000048425359533A25
:10203000000000004449413A000000000008004050
:1020400040000020410000204D41503A2020000077
:10205000202020200000000000F01F0032490880EE
:1020600094ED000A5FED160A30EE600AF1EE040A04
:1020700020EE200A1FED191AC0EE010A1FED1A0A00
:1020800020EE800A2948006880ED030A94ED000ADA
:10209000DDED0F0A30EE600A8DED0D0A95ED000AB8
:1020A000DDED0C0A30EE600A8DED0A0A94ED000AAF
:1020B0008DED0F0A95ED000A8DED0C0A1C48007895
:1020C000E0B19DF8200040B100210820FEF7A4FDFA
:1020D0002020FEF71FFE002008909DF8240050B13C
:1020E00000210820FEF798FD0020FEF713FE0020D7
:1020F00009900120089000200D4908700D480078D3
:1021000088B101210C20FEF787FD0849096891ED8F
:10211000030ABCEEC00A10EE101AC8B2FEF7AAFD00
:1021200000200449087088E532000020DC0200200D
:10213000410000204000002010B502684C0001233F
:10214000A3401A43026002684C000223A3409A4352
:10215000026010BD10B502684C000123A3401A4371
:10216000026002684C000223A3409A43026010BD43
:102170004FF04070E1EE100A7047000000000000D0
:102180000000010203040607080900000000010224
:1021900003040000B4210008000000201003000028
:1021A00000020008F023000810030020E80E0000E1
:1021B000640200085200011005AD1D4039042006DC
:1021C0003A4216903A0821100016110000803F355F
:1021D0000556C0C6A48740AC321AC07479043F00CB
:1021E0000100FF00E2871F38E17E6B38BBFFC1387A
:1021F00023861139ADEC4A39E9EB84395564A439A9
:10220000290EC0391D08D3392DACD73924D7C73989
:10221000A56A9D39B6C425391FFE5FB8438AB1B996
:10222000C8C036BAAB2793BA8B12D2BA6AD30ABBEC
:1022300037552DBB9EA64EBB43B46CBB78B482BB56
:102240009D6E8BBB52C58FBB693E8FBB3DBE89BBAC
:10225000902E7FBB522363BB60D141BB547A1EBB1F
:1022600029F2F9BAF5F6C2BADD56A0BAE79A99BAD8
:102270003FB9B4BAAA5AF5BA0B202EBB8D6D73BB09
:1022800008CAA3BB6FF5D2BBB51702BCBAF519BC1F
:10229000EA2E2FBC2EE63FBC28734ABC098E4DBCEB
:1022A0004C7748BC5B173BBC691226BC90CD0ABC7E
:1022B00093C6D6BB400D95BB1C582DBBA10189BA56
:1022C000BB3261382A81FA392AAFC338264F9ABA0D
:1022D0005A0E5BBB6C8BCFBB09E123BCAE6567BC00
:1022E00037C6304E96BCC25CB8BCAB6AD5BCD7DA38
:1022F000EABC19C8F5BC05B7F3BCD5CBE2BC1BF8EA
:10230000C1BC5D1C91BCF03422BC90ADF5B974B277
:10231000273CE650B23CB7A7093D341B393D952810
:10232000653DE7C7853DCE27953D47E39F3D136754
:10233000A504210C2114211C2124212C2134213C11
:102340002144214C2154215C2164216C2174217C85
:102350002184218C2194219C21A421AC21B421BC75
:1023600021C421CC21D421DC21E421EC21F421FC65
:102370002504250C2514251C2524252C2534253C35
:102380002544254C2554255C2564256C2574257C25
:102390002584258C2594259C25A425AC25B425BC15
:1023A00025C425CC25D425DC25E425EC25F425FC05
:1023B0002904290C2914291C2924292C2934293CD5
:1023C0002944294C2954295C2964296C2974297CC5
:1023D0002984298C29941006500700206C04127C53
:1023E00008032101000100040024F40000000000A3
:04000005080002AD40
:00000001FF
